{
  "contractName": "Locations",
  "abi": [
    {
      "inputs": [],
      "stateMutability": "nonpayable",
      "type": "constructor"
    },
    {
      "anonymous": false,
      "inputs": [
        {
          "indexed": false,
          "internalType": "string",
          "name": "name",
          "type": "string"
        }
      ],
      "name": "LocationCreated",
      "type": "event"
    },
    {
      "inputs": [],
      "name": "locationCount",
      "outputs": [
        {
          "internalType": "uint256",
          "name": "",
          "type": "uint256"
        }
      ],
      "stateMutability": "view",
      "type": "function",
      "constant": true
    },
    {
      "inputs": [
        {
          "internalType": "uint256",
          "name": "",
          "type": "uint256"
        }
      ],
      "name": "locations",
      "outputs": [
        {
          "internalType": "string",
          "name": "name",
          "type": "string"
        }
      ],
      "stateMutability": "view",
      "type": "function",
      "constant": true
    },
    {
      "inputs": [
        {
          "internalType": "string",
          "name": "_name",
          "type": "string"
        }
      ],
      "name": "createLocation",
      "outputs": [],
      "stateMutability": "nonpayable",
      "type": "function"
    }
  ],
  "bytecode": "0x60806040526000805534801561001457600080fd5b506100596040518060400160405280600b81526020017f53656174746c652c2057410000000000000000000000000000000000000000008152506100e660201b60201c565b61009d6040518060400160405280600d81526020017f4b6973756d752c204b656e7961000000000000000000000000000000000000008152506100e660201b60201c565b6100e16040518060400160405280601181526020017f4c7562756d62617368692c20436f6e676f0000000000000000000000000000008152506100e660201b60201c565b610276565b6000808154809291906001019190505550604051806020016040528082815250600160008054815260200190815260200160002060008201518160000190805190602001906101369291906101d9565b509050507fd5d3e8c3a95c8f5b3f87fb94766915f90d1f49e9fce0b8c4b3287eed10d1e295816040518080602001828103825283818151815260200191508051906020019080838360005b8381101561019c578082015181840152602081019050610181565b50505050905090810190601f1680156101c95780820380516001836020036101000a031916815260200191505b509250505060405180910390a150565b828054600181600116156101000203166002900490600052602060002090601f016020900481019282601f1061021a57805160ff1916838001178555610248565b82800160010185558215610248579182015b8281111561024757825182559160200191906001019061022c565b5b5090506102559190610259565b5090565b5b8082111561027257600081600090555060010161025a565b5090565b610448806102856000396000f3fe608060405234801561001057600080fd5b50600436106100415760003560e01c80638870325414610046578063b9e0db3514610064578063d54d66b01461010b575b600080fd5b61004e6101c6565b6040518082815260200191505060405180910390f35b6100906004803603602081101561007a57600080fd5b81019080803590602001909291905050506101cc565b6040518080602001828103825283818151815260200191508051906020019080838360005b838110156100d05780820151818401526020810190506100b5565b50505050905090810190601f1680156100fd5780820380516001836020036101000a031916815260200191505b509250505060405180910390f35b6101c46004803603602081101561012157600080fd5b810190808035906020019064010000000081111561013e57600080fd5b82018360208201111561015057600080fd5b8035906020019184600183028401116401000000008311171561017257600080fd5b91908080601f016020809104026020016040519081016040528093929190818152602001838380828437600081840152601f19601f820116905080830192505050505050509192919290505050610282565b005b60005481565b6001602052806000526040600020600091509050806000018054600181600116156101000203166002900480601f0160208091040260200160405190810160405280929190818152602001828054600181600116156101000203166002900480156102785780601f1061024d57610100808354040283529160200191610278565b820191906000526020600020905b81548152906001019060200180831161025b57829003601f168201915b5050505050905081565b6000808154809291906001019190505550604051806020016040528082815250600160008054815260200190815260200160002060008201518160000190805190602001906102d2929190610375565b509050507fd5d3e8c3a95c8f5b3f87fb94766915f90d1f49e9fce0b8c4b3287eed10d1e295816040518080602001828103825283818151815260200191508051906020019080838360005b8381101561033857808201518184015260208101905061031d565b50505050905090810190601f1680156103655780820380516001836020036101000a031916815260200191505b509250505060405180910390a150565b828054600181600116156101000203166002900490600052602060002090601f016020900481019282601f106103b657805160ff19168380011785556103e4565b828001600101855582156103e4579182015b828111156103e35782518255916020019190600101906103c8565b5b5090506103f191906103f5565b5090565b5b8082111561040e5760008160009055506001016103f6565b509056fea2646970667358221220f66bbae505494555dd08edecfccac626f7c867395937bb5328b007a76634155b64736f6c63430007000033",
  "immutableReferences": {},
  "source": "// SPDX-License-Identifier: MIT\npragma solidity 0.7.0;\n\n\ncontract Locations {\n    uint public locationCount = 0;\n\n    struct Location {\n        string name;\n    }\n\n    mapping(uint => Location) public locations;\n\n    constructor() public {\n        createLocation(\"Seattle, WA\");\n        createLocation(\"Kisumu, Kenya\");\n        createLocation(\"Lubumbashi, Congo\");\n    }\n\n    event LocationCreated(\n        string name\n    );\n\n    function createLocation(string memory _name) public {\n        locationCount++;\n        locations[locationCount] = Location(_name);\n        emit LocationCreated(_name);\n    }\n}",
  "sourcePath": "C:/Users/HP/OneDrive/Desktop/New/Vaccination/contracts/Locations.sol",
  "compiler": {
    "name": "solc",
    "version": "0.7.0+commit.9e61f92b.Emscripten.clang"
  },
  "schemaVersion": "3.3.4",
  "updatedAt": "2021-03-11T19:53:21.177Z",
  "networkType": "ethereum",
  "devdoc": {
    "kind": "dev",
    "methods": {},
    "version": 1
  },
  "userdoc": {
    "kind": "user",
    "methods": {},
    "version": 1
  }
}