{
  "contractName": "VaccineDistribution",
  "abi": [
    {
      "inputs": [],
      "stateMutability": "nonpayable",
      "type": "constructor"
    },
    {
      "anonymous": false,
      "inputs": [
        {
          "indexed": false,
          "internalType": "string",
          "name": "barcode",
          "type": "string"
        },
        {
          "indexed": false,
          "internalType": "string",
          "name": "name",
          "type": "string"
        },
        {
          "indexed": false,
          "internalType": "string",
          "name": "manufacturer",
          "type": "string"
        },
        {
          "indexed": false,
          "internalType": "string",
          "name": "locale",
          "type": "string"
        },
        {
          "indexed": false,
          "internalType": "int256",
          "name": "temp",
          "type": "int256"
        }
      ],
      "name": "VaccineCreated",
      "type": "event"
    },
    {
      "anonymous": false,
      "inputs": [
        {
          "indexed": false,
          "internalType": "string",
          "name": "barcode",
          "type": "string"
        },
        {
          "indexed": false,
          "internalType": "string",
          "name": "name",
          "type": "string"
        },
        {
          "indexed": false,
          "internalType": "string",
          "name": "vaccineLocation",
          "type": "string"
        },
        {
          "indexed": false,
          "internalType": "int256",
          "name": "temp",
          "type": "int256"
        }
      ],
      "name": "VaccineReceived",
      "type": "event"
    },
    {
      "inputs": [],
      "name": "vaccineCount",
      "outputs": [
        {
          "internalType": "uint256",
          "name": "",
          "type": "uint256"
        }
      ],
      "stateMutability": "view",
      "type": "function",
      "constant": true
    },
    {
      "inputs": [
        {
          "internalType": "uint256",
          "name": "",
          "type": "uint256"
        }
      ],
      "name": "vaccines",
      "outputs": [
        {
          "internalType": "string",
          "name": "barcode",
          "type": "string"
        },
        {
          "internalType": "string",
          "name": "name",
          "type": "string"
        },
        {
          "internalType": "string",
          "name": "manufacturer",
          "type": "string"
        },
        {
          "internalType": "string",
          "name": "locale",
          "type": "string"
        },
        {
          "internalType": "int256",
          "name": "temp",
          "type": "int256"
        }
      ],
      "stateMutability": "view",
      "type": "function",
      "constant": true
    },
    {
      "inputs": [
        {
          "internalType": "string",
          "name": "_barcode",
          "type": "string"
        },
        {
          "internalType": "string",
          "name": "_name",
          "type": "string"
        },
        {
          "internalType": "string",
          "name": "_manufacturer",
          "type": "string"
        },
        {
          "internalType": "string",
          "name": "_locale",
          "type": "string"
        },
        {
          "internalType": "int256",
          "name": "_temp",
          "type": "int256"
        }
      ],
      "name": "createVaccine",
      "outputs": [],
      "stateMutability": "nonpayable",
      "type": "function"
    },
    {
      "inputs": [
        {
          "internalType": "uint256",
          "name": "_id",
          "type": "uint256"
        },
        {
          "internalType": "string",
          "name": "_vaccineLocation",
          "type": "string"
        },
        {
          "internalType": "int256",
          "name": "_temp",
          "type": "int256"
        }
      ],
      "name": "receiveVaccine",
      "outputs": [],
      "stateMutability": "nonpayable",
      "type": "function"
    }
  ],
  "bytecode": "0x6080604052600080553480156200001557600080fd5b50620001006040518060400160405280600881526020017f53464646514a39330000000000000000000000000000000000000000000000008152506040518060400160405280601481526020017f4d616c6172696120496d6d756e697a6174696f6e0000000000000000000000008152506040518060400160405280600481526020017f50415448000000000000000000000000000000000000000000000000000000008152506040518060400160405280600b81526020017f53656174746c652c2057410000000000000000000000000000000000000000008152506003620002da60201b60201c565b620001ea6040518060400160405280600881526020017f4a444446443333340000000000000000000000000000000000000000000000008152506040518060400160405280600f81526020017f4d4d522056616363696e6174696f6e00000000000000000000000000000000008152506040518060400160405280600581526020017f4d6572636b0000000000000000000000000000000000000000000000000000008152506040518060400160405280600b81526020017f53656174746c652c2057410000000000000000000000000000000000000000008152506002620002da60201b60201c565b620002d46040518060400160405280600881526020017f44465346453233380000000000000000000000000000000000000000000000008152506040518060400160405280600f81526020017f466c752056616363696e6174696f6e00000000000000000000000000000000008152506040518060400160405280600e81526020017f53616e6f666920506173746575720000000000000000000000000000000000008152506040518060400160405280600b81526020017f53656174746c652c2057410000000000000000000000000000000000000000008152506003620002da60201b60201c565b62000653565b60008081548092919060010191905055506040518060a00160405280868152602001858152602001848152602001838152602001828152506001600080548152602001908152602001600020600082015181600001908051906020019062000344929190620005ad565b50602082015181600101908051906020019062000363929190620005ad565b50604082015181600201908051906020019062000382929190620005ad565b506060820151816003019080519060200190620003a1929190620005ad565b50608082015181600401559050507f66607d108c079185600fab1416a7bee6a88f2318884dea9ae4d20e356db367508585858585604051808060200180602001806020018060200186815260200185810385528a818151815260200191508051906020019080838360005b83811015620004295780820151818401526020810190506200040c565b50505050905090810190601f168015620004575780820380516001836020036101000a031916815260200191505b50858103845289818151815260200191508051906020019080838360005b838110156200049257808201518184015260208101905062000475565b50505050905090810190601f168015620004c05780820380516001836020036101000a031916815260200191505b50858103835288818151815260200191508051906020019080838360005b83811015620004fb578082015181840152602081019050620004de565b50505050905090810190601f168015620005295780820380516001836020036101000a031916815260200191505b50858103825287818151815260200191508051906020019080838360005b838110156200056457808201518184015260208101905062000547565b50505050905090810190601f168015620005925780820380516001836020036101000a031916815260200191505b50995050505050505050505060405180910390a15050505050565b828054600181600116156101000203166002900490600052602060002090601f016020900481019282601f10620005f057805160ff191683800117855562000621565b8280016001018555821562000621579182015b828111156200062057825182559160200191906001019062000603565b5b50905062000630919062000634565b5090565b5b808211156200064f57600081600090555060010162000635565b5090565b61110580620006636000396000f3fe608060405234801561001057600080fd5b506004361061004c5760003560e01c8063084fcf2e146100515780632b33fd9114610120578063300e88bd146103aa578063dcb7b1b71461059c575b600080fd5b61011e6004803603606081101561006757600080fd5b81019080803590602001909291908035906020019064010000000081111561008e57600080fd5b8201836020820111156100a057600080fd5b803590602001918460018302840111640100000000831117156100c257600080fd5b91908080601f016020809104026020016040519081016040528093929190818152602001838380828437600081840152601f19601f820116905080830192505050505050509192919290803590602001909291905050506105ba565b005b6103a8600480360360a081101561013657600080fd5b810190808035906020019064010000000081111561015357600080fd5b82018360208201111561016557600080fd5b8035906020019184600183028401116401000000008311171561018757600080fd5b91908080601f016020809104026020016040519081016040528093929190818152602001838380828437600081840152601f19601f820116905080830192505050505050509192919290803590602001906401000000008111156101ea57600080fd5b8201836020820111156101fc57600080fd5b8035906020019184600183028401116401000000008311171561021e57600080fd5b91908080601f016020809104026020016040519081016040528093929190818152602001838380828437600081840152601f19601f8201169050808301925050505050505091929192908035906020019064010000000081111561028157600080fd5b82018360208201111561029357600080fd5b803590602001918460018302840111640100000000831117156102b557600080fd5b91908080601f016020809104026020016040519081016040528093929190818152602001838380828437600081840152601f19601f8201169050808301925050505050505091929192908035906020019064010000000081111561031857600080fd5b82018360208201111561032a57600080fd5b8035906020019184600183028401116401000000008311171561034c57600080fd5b91908080601f016020809104026020016040519081016040528093929190818152602001838380828437600081840152601f19601f82011690508083019250505050505050919291929080359060200190929190505050610aa8565b005b6103d6600480360360208110156103c057600080fd5b8101908080359060200190929190505050610d67565b604051808060200180602001806020018060200186815260200185810385528a818151815260200191508051906020019080838360005b8381101561042857808201518184015260208101905061040d565b50505050905090810190601f1680156104555780820380516001836020036101000a031916815260200191505b50858103845289818151815260200191508051906020019080838360005b8381101561048e578082015181840152602081019050610473565b50505050905090810190601f1680156104bb5780820380516001836020036101000a031916815260200191505b50858103835288818151815260200191508051906020019080838360005b838110156104f45780820151818401526020810190506104d9565b50505050905090810190601f1680156105215780820380516001836020036101000a031916815260200191505b50858103825287818151815260200191508051906020019080838360005b8381101561055a57808201518184015260208101905061053f565b50505050905090810190601f1680156105875780820380516001836020036101000a031916815260200191505b50995050505050505050505060405180910390f35b6105a4610ffd565b6040518082815260200191505060405180910390f35b6105c2611003565b600160008581526020019081526020016000206040518060a0016040529081600082018054600181600116156101000203166002900480601f0160208091040260200160405190810160405280929190818152602001828054600181600116156101000203166002900480156106795780601f1061064e57610100808354040283529160200191610679565b820191906000526020600020905b81548152906001019060200180831161065c57829003601f168201915b50505050508152602001600182018054600181600116156101000203166002900480601f01602080910402602001604051908101604052809291908181526020018280546001816001161561010002031660029004801561071b5780601f106106f05761010080835404028352916020019161071b565b820191906000526020600020905b8154815290600101906020018083116106fe57829003601f168201915b50505050508152602001600282018054600181600116156101000203166002900480601f0160208091040260200160405190810160405280929190818152602001828054600181600116156101000203166002900480156107bd5780601f10610792576101008083540402835291602001916107bd565b820191906000526020600020905b8154815290600101906020018083116107a057829003601f168201915b50505050508152602001600382018054600181600116156101000203166002900480601f01602080910402602001604051908101604052809291908181526020018280546001816001161561010002031660029004801561085f5780601f106108345761010080835404028352916020019161085f565b820191906000526020600020905b81548152906001019060200180831161084257829003601f168201915b50505050508152602001600482015481525050905081816080018181525050828160600181905250806001600086815260200190815260200160002060008201518160000190805190602001906108b7929190611032565b5060208201518160010190805190602001906108d4929190611032565b5060408201518160020190805190602001906108f1929190611032565b50606082015181600301908051906020019061090e929190611032565b50608082015181600401559050507fcb01df06dd9db442f4d5969572275a4894bd07e37942272cc35330d68833861481600001518260200151858560405180806020018060200180602001858152602001848103845288818151815260200191508051906020019080838360005b8381101561099757808201518184015260208101905061097c565b50505050905090810190601f1680156109c45780820380516001836020036101000a031916815260200191505b50848103835287818151815260200191508051906020019080838360005b838110156109fd5780820151818401526020810190506109e2565b50505050905090810190601f168015610a2a5780820380516001836020036101000a031916815260200191505b50848103825286818151815260200191508051906020019080838360005b83811015610a63578082015181840152602081019050610a48565b50505050905090810190601f168015610a905780820380516001836020036101000a031916815260200191505b5097505050505050505060405180910390a150505050565b60008081548092919060010191905055506040518060a001604052808681526020018581526020018481526020018381526020018281525060016000805481526020019081526020016000206000820151816000019080519060200190610b10929190611032565b506020820151816001019080519060200190610b2d929190611032565b506040820151816002019080519060200190610b4a929190611032565b506060820151816003019080519060200190610b67929190611032565b50608082015181600401559050507f66607d108c079185600fab1416a7bee6a88f2318884dea9ae4d20e356db367508585858585604051808060200180602001806020018060200186815260200185810385528a818151815260200191508051906020019080838360005b83811015610bed578082015181840152602081019050610bd2565b50505050905090810190601f168015610c1a5780820380516001836020036101000a031916815260200191505b50858103845289818151815260200191508051906020019080838360005b83811015610c53578082015181840152602081019050610c38565b50505050905090810190601f168015610c805780820380516001836020036101000a031916815260200191505b50858103835288818151815260200191508051906020019080838360005b83811015610cb9578082015181840152602081019050610c9e565b50505050905090810190601f168015610ce65780820380516001836020036101000a031916815260200191505b50858103825287818151815260200191508051906020019080838360005b83811015610d1f578082015181840152602081019050610d04565b50505050905090810190601f168015610d4c5780820380516001836020036101000a031916815260200191505b50995050505050505050505060405180910390a15050505050565b6001602052806000526040600020600091509050806000018054600181600116156101000203166002900480601f016020809104026020016040519081016040528092919081815260200182805460018160011615610100020316600290048015610e135780601f10610de857610100808354040283529160200191610e13565b820191906000526020600020905b815481529060010190602001808311610df657829003601f168201915b505050505090806001018054600181600116156101000203166002900480601f016020809104026020016040519081016040528092919081815260200182805460018160011615610100020316600290048015610eb15780601f10610e8657610100808354040283529160200191610eb1565b820191906000526020600020905b815481529060010190602001808311610e9457829003601f168201915b505050505090806002018054600181600116156101000203166002900480601f016020809104026020016040519081016040528092919081815260200182805460018160011615610100020316600290048015610f4f5780601f10610f2457610100808354040283529160200191610f4f565b820191906000526020600020905b815481529060010190602001808311610f3257829003601f168201915b505050505090806003018054600181600116156101000203166002900480601f016020809104026020016040519081016040528092919081815260200182805460018160011615610100020316600290048015610fed5780601f10610fc257610100808354040283529160200191610fed565b820191906000526020600020905b815481529060010190602001808311610fd057829003601f168201915b5050505050908060040154905085565b60005481565b6040518060a0016040528060608152602001606081526020016060815260200160608152602001600081525090565b828054600181600116156101000203166002900490600052602060002090601f016020900481019282601f1061107357805160ff19168380011785556110a1565b828001600101855582156110a1579182015b828111156110a0578251825591602001919060010190611085565b5b5090506110ae91906110b2565b5090565b5b808211156110cb5760008160009055506001016110b3565b509056fea2646970667358221220632a14441c72714e67967d31967935990037d8ca28c867b18909936368b6c91964736f6c63430007000033",
  "immutableReferences": {},
  "source": "// SPDX-License-Identifier: MIT\n\n\ncontract VaccineDistribution {\n    uint public vaccineCount = 0;\n\n    struct Vaccine {\n        string barcode;\n        string name;\n        string manufacturer;\n        string locale;\n        int temp;\n    }\n\n    mapping(uint => Vaccine) public vaccines;\n\n    event VaccineCreated(\n        string barcode,\n        string name,\n        string manufacturer,\n        string locale,\n        int temp\n    );\n\n    event VaccineReceived(\n        string barcode,\n        string name,\n        string vaccineLocation,\n        int temp\n    );\n\n    constructor() public {\n        createVaccine(\"SFFFQJ93\", \"Malaria Immunization\", \"PATH\", \"Seattle, WA\", 3);\n        createVaccine(\"JDDFD334\", \"MMR Vaccination\", \"Merck\", \"Seattle, WA\", 2);\n        createVaccine(\"DFSFE238\", \"Flu Vaccination\", \"Sanofi Pasteur\", \"Seattle, WA\", 3);\n    }\n\n    function createVaccine(string memory _barcode, string memory _name, string memory _manufacturer,\n    string memory _locale, int  _temp) public {\n        vaccineCount++;\n        vaccines[vaccineCount] = Vaccine(_barcode, _name, _manufacturer, _locale, _temp);\n        emit VaccineCreated(_barcode, _name, _manufacturer, _locale, _temp);\n    }\n\n    function receiveVaccine(uint _id, string memory _vaccineLocation, int _temp) public {\n        Vaccine memory _vaccine = vaccines[_id];\n        _vaccine.temp = _temp;\n        _vaccine.locale = _vaccineLocation;\n        vaccines[_id] = _vaccine;\n        emit VaccineReceived(_vaccine.barcode, _vaccine.name, _vaccineLocation, _temp);\n    }\n}",
  "sourcePath": "C:/Users/HP/OneDrive/Desktop/New/Vaccination/contracts/VaccineDistribution.sol",
  "compiler": {
    "name": "solc",
    "version": "0.7.0+commit.9e61f92b.Emscripten.clang"
  },
  "schemaVersion": "3.3.4",
  "updatedAt": "2021-03-11T19:53:19.897Z",
  "networkType": "ethereum",
  "devdoc": {
    "kind": "dev",
    "methods": {},
    "version": 1
  },
  "userdoc": {
    "kind": "user",
    "methods": {},
    "version": 1
  }
}